:020000040000FA
:0400000045EF00F0D8
:100008001882FACF01F0FBCF02F0F2AA0EEF00F04F
:1000180010EF00F01BEF00F0F2A415EF00F017EF5F
:1000280000F01BEF00F0F3EC03F03FEF00F0F2A854
:1000380020EF00F022EF00F02DEF00F0F2A227EF02
:1000480000F029EF00F02DEF00F0BAEC04F03FEFDC
:1000580000F0F0A632EF00F034EF00F03FEF00F0D0
:10006800F0A039EF00F03BEF00F03FEF00F0B6EC06
:1000780004F03FEF00F002C0FBFF01C0FAFF189246
:06008800110088EF04F0F6
:10060000003C91287D00000E066E040EF66E060E6C
:10061000F76E0800F550036E046A0350165C045030
:100620001758D8A016EF03F018EF03F053EF03F0BC
:10063000020EF66E060EF76E0800F550036E046AA1
:100640001650035C17500458D8A029EF03F02BEF85
:1006500003F053EF03F0040EF66E060EF76E08007B
:10066000F550036E046A0350145C04501558D8A06A
:100670003CEF03F03EEF03F053EF03F0020EF66E93
:10068000060EF76E0800F550036E046A1450035C02
:1006900015500458D8A04FEF03F051EF03F053EF7B
:1006A00003F0010E066E0650D8A459EF03F05CEF7C
:1006B00003F0010E5DEF03F0000E056E000E176EE5
:1006C000000E166E000E156E000E146E0550120010
:1006D000000E056E030EF66E060EF76E0800F5505E
:1006E000036E046A0350165C04501758D8A07BEFC1
:1006F00003F07DEF03F0B8EF03F0010EF66E060E87
:10070000F76E0800F550036E046A1650035C17502C
:100710000458D8A08EEF03F090EF03F0B8EF03F089
:10072000030EF66E060EF76E0800F550036E046AAF
:100730000350145C04501558D8A0A1EF03F0A3EFA8
:1007400003F0B8EF03F0010EF66E060EF76E080028
:10075000F550036E046A1450035C15500458D8A079
:10076000B4EF03F0B6EF03F0B8EF03F0010E056E3F
:100770000550120095EC04F0F28EF28C8B8E8B8C6F
:100780008B8A8B88020E086E450E076EAA0EE82E25
:10079000FED7072EFCD7082EFAD768EC03F0096EB7
:1007A00003EC03F00A6E8B988B8A8B9E8B8C09501E
:1007B000D8B4DDEF03F0DFEF03F0E3EF03F08B8855
:1007C0008B8A8B8E8B9C0A50D8B4E9EF03F0EBEF49
:1007D00003F0C2EF03F08B888B9A8B8E8B8CC2EF69
:1007E00003F045EF00F0F29411C0D6FF124A132A2D
:1007F000135009E1020E125CD8A001EF04F003EFE0
:1008000004F009EF04F00AEC04F0000E136E000E81
:10081000126E12000B500C10D8B411EF04F013EF4D
:1008200004F020EF04F002D820EF04F00500FA6E87
:100830000B50FD6E0C50FE6EF850FF6EFA50120019
:1008400012000D500E10D8B428EF04F02AEF04F077
:1008500037EF04F002D837EF04F00500FA6E0D50C0
:10086000FD6E0E50FE6EF850FF6EFA501200120030
:100870000F501010D8B43FEF04F041EF04F04EEFEA
:1008800004F002D84EEF04F00500FA6E0F50FD6E32
:100890001050FE6EF850FF6EFA5012001200000E5B
:1008A000896E000E8A6E000E8B6E92689368070E3A
:1008B000946EFC0E0F013A6F3C0E396F2F0E386F9D
:1008C000000E616EF18E1200F292F18C880E036EB2
:1008D000090E046EB1EC04F0F288F090F18A7C0EFF
:1008E000036E090E046EACEC04F0F0861200000EEC
:1008F000D76E3D0ED66E3D0E116EF294F28A980EB2
:10090000036E090E046EA7EC04F0F70ED56E12000C
:10091000176A166A156A146A136A126A189018928E
:10092000000EF86E0001BAEF03F0CAEC04F04FECD1
:1009300004F0A0EC04F064EC04F077EC04F0120096
:10094000300ED36E040ED26E000E9B6E120003C0EA
:100950000BF004C00CF0120003C00DF004C00EF048
:10096000120003C00FF004C010F01200F09021EC50
:1009700004F01200F29238EC04F01200C1EC04F022
:100980001200144A152A1200C7EC04F01200164A8D
:0A099000172A1200D09E1200120078
:020000040020DA
:08000000FFFFFFFFFFFFFFFF00
:020000040030CA
:0E000000FF281F3CFFBF85FF0FC00FE00F4021
:00000001FF
